:020000020000FC
:100000006DC009C01895189518950EC00EC01895AA
:10001000189518951895403019F0433019F0189537
:1000200043951895562F18951895F894513059F115
:10003000533049F1553039F1573029F15230C9F177
:100040005430B9F15630A9F1583099F1503009F0D7
:1000500061E0413041F0423049F0443061F04530D8
:1000600069F078941895439578941895439503E032
:1000700005BF78941895439578941895442702E025
:1000800005BF78941895402E0027C09A31E0230FC1
:10009000101F901F913051F4153641F4213A31F47C
:1000A00020E010E09927C09850E06395042D7894E3
:1000B0001895402E0027C19A31E0230F101F903071
:1000C00051F4173441F4263831F420E010E0992738
:1000D000C19850E06395042D7894189505E003BF0E
:1000E00002E809BF00E40BBF02E005BF0FEF07BB4A
:1000F00004E002BB61E044275527222711279927F6
:100100000FED0DBF002711270F930F937894FFCFAA
:00000001FF
